:020000040000FA
:10000000E0020020F100000017010000D500000010
:1000100000000000000000000000000000000000E0
:100020000000000000000000000000001B010000B4
:1000300000000000000000001D0100001F01000082
:100040002101000021010000210100002101000028
:100050002101000021010000210100002101000018
:1000600021010000C5100000210100002101000055
:1000700025110000210100004109000021010000BC
:1000800021010000210100002101000021010000E8
:1000900021010000210100002101000021010000D8
:1000A00021010000210100002101000021010000C8
:1000B00021010000210100002101000021010000B8
:1000C0000348854600F0A2F800480047391A0000AE
:1000D000E002002004207146084202D0EFF30980BC
:1000E00001E0EFF308807146004A1047D107000095
:1000F0000C480D4901600D4901600D4901600D4A30
:100100000D4911600D4A0E491160002101600D4832
:1001100080470D480047FEE7FEE7FEE7FEE7FEE703
:10012000FEE700000001004059000000160000003A
:100130008800000024000040A55A00008002004012
:1001400001000000A90F0000C100000030B50B46FF
:10015000014600202022012409E00D46D5409D42A1
:1001600005D31D469540491B254695404019154627
:10017000521E002DF1DC30BD03460B439B0703D01C
:1001800009E008C9121F08C0042AFAD203E00B785C
:100190000370401C491C521EF9D27047421C017862
:1001A000401C0029FBD1801A7047F0B51FB40646E9
:1001B000002082B005464024019100901BE0019987
:1001C00022460F46304600F043F8049A059B801AF9
:1001D000994110D310461946224600F029F8361AE4
:1001E0008F410197224601200021009F00F020F856
:1001F00038184D4100902046641E0028DFDC019B2A
:1002000000982946324607B0F0BD0000064C012593
:10021000064E05E0E36807CC2B430C3C98471034AE
:10022000B442F7D3FFF750FF581D0000781D0000BF
:1002300010B5202A04DB0146203A9140002010BD71
:10024000914020239C1A0346E3401943904010BD7F
:1002500010B5202A04DB0846203AD040002110BD0A
:100260000B46D340D0402024A21A9140084319469F
:1002700010BD00000EB509490EC900910192810F11
:100280008A00029369468A58054951184A68C3068C
:10029000DB0E0120984002434A600EBD101D000095
:1002A0000002004002490A6802430A6070470000E9
:1002B0000002004010B500F02DFE0148006810BD9E
:1002C0000000002010B500F025FE0148006810BDB8
:1002D0000000002002480068C00700D001487047B5
:1002E000000200400048E80104480068800702D589
:1002F0000120C0037047002070470000000200404A
:1003000010B500F007FE0448406B41070348490F51
:100310000068C84010BD000000020040000000203E
:1003200010B500F0F7FD0448406B4006410F03484C
:100330000068C84010BD000000020040000000201E
:1003400008B511A000681149009009680020052235
:100350001204114216D1080301D50D4800E00D48E2
:100360008A030FD40A04920F6B469B5CCA0589046A
:10037000D20DC90E891C8008921C59435043FFF7C7
:10038000E5FE800008BD00000102020440020040BA
:10039000001BB7000048E80108B511A0006811492A
:1003A00000900968002005221204114216D10803AA
:1003B00001D50D4800E00D488A030FD40A04920FBE
:1003C0006B469B5CCA058904D20DC90E891C800846
:1003D000921C59435043FFF7B9FE800008BD00004E
:1003E0000102020440020040001BB7000048E8017F
:1003F000F3B5124881B005690F4610200F4C054037
:10040000403C2068042630432060102000F050F863
:100410002069072108432061206A00090001384350
:1004200020622069884301990843206100F072FD31
:10043000002D02D12068B0432060FEBD4002004084
:10044000F0B5194B88B0F0CB009401ACE0C478CB88
:1004500004AF78C7840A23061B0E0ED003039B0F3C
:100460009B0004ADEB58114D5B19E5B28405E40E19
:10047000A5401C68AC4314431C60420E520710D0C8
:100480008200920F92006B469A58084B103BD2188C
:1004900003015B0FC001C00E8340106898430843FE
:1004A000106008B0F0BD0000F01C00002002004009
:1004B00010B504460749084B05E00A46491E002AC4
:1004C00001DC002010BD1A6920469043F5D10120BF
:1004D00010BD000080F520004002004010B500F083
:1004E0009BFC00F0F7F80F20800201F0F1FA0028E1
:1004F00002DA05A001F034F80221102000F07CF9A6
:1005000000F098FC10BD00004661696C65642074C1
:100510006F20736574204461746120466C61736858
:1005200020626173652061646472657373210D0AD2
:100530000000000070B58AB0002668460670344698
:10054000202223A101A8FFF717FE042001F068FA7A
:1005500000283BD00021042001F034FB244D6A46E2
:10056000297910780918401C10702007C9B2000FB3
:1005700000F0B0FF641CE4B2102CF0D300F04AF895
:100580001C480660002446052007000F694600F05D
:10059000CBF96846017818A000F0E2FF6007F0424E
:1005A00002D118A000F0DCFF641CE4B2102CEBD3E5
:1005B00028791030287101A8FFF7F0FD024601A943
:1005C000114800F070FF11A000F0CAFF0AB070BD22
:1005D000456D756C6174655F454550524F4D5F5078
:1005E000726F636573732066696E6973682021009A
:1005F00010000020000100403078253258202C20C7
:10060000000000000D0A0000000007400D0A0D0A5E
:100610000000000002480168490849000160704775
:1006200000C0004010B559210948162288230160F6
:10063000026003600468002CF9D006484168042277
:10064000114341600448016801221143016010BD5B
:10065000000100400002004000C0004003460121AC
:1006600000B5002049058B4203D100F017F800289F
:1006700011D109492222CA604B6001220A610A692C
:10068000D207FCD10A68520605D5086840221043FB
:1006900008600020C04300BD00C0004000200B499E
:1006A0002222CA60012252054A60094A8A60012258
:1006B0000A610A69D207FCD10A68520605D50868A2
:1006C0004022104308600020C043704700C0004033
:1006D00003AA5500024801680122114301607047D6
:1006E00000C0004005490022CA604860012008613E
:1006F0000869C007FCD188687047000000C000404E
:1007000030B5044603200B4600250005FFF7EAFF3D
:100710002060032B01D96D1E0CE0012B03D9064884
:10072000FFF7E0FF6060022B04D90348001DFFF7CC
:10073000D9FFA060284630BD04003000054A2123BF
:10074000D36050609160012010611069C007FCD136
:100750007047000000C00040F3B50646002081B09D
:100760000446009010E0A5000320000528187159E8
:100770000746FFF7E3FF3846FFF7B4FF7159884299
:1007800001D001200090641C02988442EBD30098B1
:10079000FEBD000010B501229103024800F004F8EC
:1007A00010BD000040400040F0B5002301273C464A
:1007B0009C400C4208D005685C000326A640B54367
:1007C0001646A640354305605B1C102BEFD3F0BDE9
:1007D000044603A000F0C4FE204601F001FAFEE743
:1007E000496E2048617264204661756C74204861CE
:1007F0006E646C65720A000010B50C4C8028616054
:10080000A06001D9012010BD082901D9022010BD26
:1008100001F028F90021FF22206101E04254491C27
:10082000A3689942FAD3002010BD000024000020E4
:1008300002488069C000C00F7047000000000740F8
:10084000FEB53648002441692546264634480068EE
:1008500040020818FFF746FF07463148304A006853
:100860005268411C914203D100207F1C009001E09E
:10087000401C0090FFF7D6FE29490869025DFF2A57
:1008800010D0005D2204000602432448BBB2416937
:100890001A4300984002019008181146FFF74EFFD6
:1008A000042715E0641CE9E70069005DFF280FD00C
:1008B000002E2DD021040006014318482943426927
:1008C0000198C0191018FFF739FF00252E463F1D6B
:1008D0001348641C81688C42E6D30446E760002E0E
:1008E0000CD01048294601430C4842690198C019B0
:1008F0001018FFF723FFE068801CE060074840699C
:10090000216849024018FFF7A9FE00982060FEBD4B
:100910000002204305430126DAE7000000C0004042
:10092000240000200000FFFF802801D3032070472F
:10093000024A1269105C08700020704724000020F1
:10094000F8B5224D224E234C04E0316B2089295406
:10095000401C20817069C005F7D51C4910397069A9
:100960008003E08806D4102806D20A5C3262401C5C
:10097000E080F4E7102809D38021304600F02CF8FD
:100980000121084601F01EF90020E0800127BF0286
:100990003946304600F0AEF8002805D107E0306B4C
:1009A0002289A854521C22817069C005F7D520897C
:1009B000102809D33946304600F00EF801210020F6
:1009C00001F000F900202081F8BD0000D0000020D7
:1009D0000010064010000020CA0704D0026801235E
:1009E0005B049A4302608A0704D5826801231B03D3
:1009F0009A4382604A0704D5826801235B039A43C5
:100A000082600A0704D5826801235B029A438260F0
:100A1000CA0604D58268FF2301339A4382604A06DE
:100A200003D5026980239A4302610A0603D502694D
:100A300008239A430261CA0503D5026904239A4335
:100A400002618A0503D5026920239A4302614905A0
:100A500003D50169102291430161704710B5836885
:100A60000D24A34311430B4308210B43836010BDA6
:100A7000CA0704D0026801235B041A4302608A0794
:100A800004D5826801231B031A4382604A0704D5F8
:100A9000826801235B031A4382600A0704D58268D7
:100AA00001235B021A438260CA0604D58268FF23D1
:100AB00001331A4382604A0603D5026980231A4330
:100AC00002610A0603D5026908231A430261CA05B6
:100AD00003D5026904231A4302618A0503D502691A
:100AE00020231A430261490503D5016910221143ED
:100AF0000161704702460020CB0703D053699B0772
:100B000000D501208B0704D553695B0701D502236B
:100B100018434B0704D553691B0701D50423184319
:100B20000B0704D553691B0601D508231843CB06D0
:100B300004D553695B0601D5102318434B0604D531
:100B400053691B0301D5402318430B0604D5536991
:100B50005B0301D580231843CB0505D553695B059D
:100B600002D5FF23013318438B0505D553691B05B7
:100B700002D501235B021843490505D55169C90413
:100B800002D50121890208437047000038B50748A3
:100B9000074C0090082304220021204600F06EF844
:100BA000002201212046FFF759FF38BD00350C0017
:100BB0000010064070B5012000F032FF00240E4EF8
:100BC0000E4D002808D00021012000F0FBFF8021FD
:100BD0003046FFF74DFFEC80002000F021FF002899
:100BE00009D00021084600F0EDFF012189023046BE
:100BF000FFF73EFF2C8170BD001006401000002062
:100C00000F4910B50020FF220B46103308541A5428
:100C1000401C80B21028F9D30A4C0222114620460B
:100C200000F0BAF80921C9012046FFF721FF064963
:100C30000020C8800881012004498003086010BD9D
:100C4000C0000020001006401000002000E100E07D
:100C500010B5084C002220212046FFF7F1FB20466A
:100C6000FFF708FBA007016B034A090C0904891868
:100C7000016310BD0D00406644440000FFB504460A
:100C800081B040480A9D1E46844202D0002005B033
:100C9000F0BD206E400840002066202E00D10026C6
:100CA000FFF710FB0746029901220023364800296E
:100CB00015D0A360029D31022943039D29431143AE
:100CC0002160636004468069302188432030A06140
:100CD000FFF7F8FA616B4907490F491C4EE0002104
:100CE000A160039B3102194311432160BD4204D32B
:100CF0008169302291432031816181698906890FA0
:100D000012D081698906890F01290FD0816989066E
:100D1000890F02290DD01D4EBD4201D2B54211D31B
:100D2000002060603046B2E7194EF5E7FFF734FB6C
:100D300006E0406B4107490F3846491CFFF706FAA9
:100D40000646E9E7134F002D0CD030460A214843F0
:100D50002946FFF7FBF90A21401DFFF7F7F9401E6E
:100D6000FF2804D9606838436060300A8FE7616803
:100D7000490A490201436160411C3046FFF7E6F928
:100D800085E700000010064000020040006CDC0215
:100D90000048E801FF01000010B50369772424062C
:100DA000A34309070B4311060B43036110BD000069
:100DB00010B500F031F80420FFF774FA1020FFF7A7
:100DC00077FB00210720FFF713FB00F0E7F9FFF79F
:100DD0003FFF084C2046FFF74DFA0121002249034E
:100DE0002046FFF72DFB00F095F80349002008602E
:100DF00010BD00000300C05E000100400121020E92
:100E0000890751188B680122824013438B608868E0
:100E1000904388607047000010B55921044816229D
:100E200088230160026003600468002CF9D010BDC3
:100E300000010040F8B5FFF7F5FB2B4E706840004D
:100E400000F010FE07460024284D07E068696102A3
:100E50004018FFF747FC61007852641C71688C42AF
:100E6000F4D30020224A05E04300FB5A934200D00D
:100E70003060401C8842F7D3306802244100795A20
:100E80009142696906D1400208181949C943FFF720
:100E900055FC25E040020818FFF724FC0102090E6A
:100EA000000EFF291CD0326904245054686931684F
:100EB000490209194018FFF715FC0204C1B2130ECC
:100EC000FF290DD0326953540102090E000EFF298B
:100ED00008D0505401204002241D8442E6D3F8BDBE
:100EE000F460F8BDA41CFBE72400002000C0004013
:100EF000FFFF000006498A691202FCD408600A2834
:100F000004D188690002FCD40D20086070470000FD
:100F100000000740F8B51D4D28691C4944071CA076
:100F200000680090640F0020403109680522120417
:100F3000114216D1080301D5164800E016488A036D
:100F40000FD40A04920F6B469B5CCA058904D20D2C
:100F5000C90E891C8008921C59435043FFF7F6F8CC
:100F600080000E4E022CB06002D00D49A00008583F
:100F7000296A0907090F491CFFF7E8F80949306099
:100F80004A108018FFF7E2F87060F8BD00020040D8
:100F900001020204001BB7000048E8010000002025
:100FA000881C000040420F0010B559210A48162342
:100FB00088220160036002600468002CF9D00749B0
:100FC0000B680722120593430B600B6813430B60F9
:100FD0000021016010BD000000010040000200403F
:100FE00010B50A4C7D220121D200C906204600F02E
:100FF00049F8206821060843206008150449086064
:10100000206889050843206010BD000020000540CD
:1010100000E100E010B588B004462022154968467A
:10102000FFF7AAF8144B144A14482033944202D113
:101030004069000A0BE09C4202D14069000B06E0C7
:101040000F4940698C4201D1000C00E0000D4107BE
:10105000490F022904D088006946085808B010BD1D
:10106000944201D09C4202D1FFF74AF9F6E7FFF71C
:1010700057F9F3E7281D000000000540000200407A
:1010800000100540F7B517460646FFF7C3FF0546B3
:1010900000244008B84201D8022008E0394628461A
:1010A000FFF754F8040E02D0611CFFF74FF80199C6
:1010B000214331607060641C604301462846FFF79D
:1010C00045F8FEBD10B510488168C907C90F1AD090
:1010D000012484600D498889421C8A817D22D200C6
:1010E000904210D3002088810A69501C0861084989
:1010F00008A000F035FA0A49886B60408863012136
:10110000042000F05FFD10BD20000540100000200D
:10111000481D00002573203A202534640D0A000084
:101120004048004070B51A4DE8690026C005194CCA
:10113000194A002811DA6078401C607000202B6882
:1011400061895354491C89B26181802900D3668129
:10115000401CC0B20328F2D370BDE869C004FBD5BF
:10116000A078401CA07004E0296860891154401CDC
:101170006081A8694004F7D56868112188436860D8
:10118000668126700121032000F01CFD70BD000067
:1011900000000740100000204000002010B50A4C5D
:1011A0002046FFF767F80121002289062046FFF755
:1011B00047F9A006C16BFF22120491433322520467
:1011C0008918C16310BD0000103D805F10B51E4836
:1011D000FFF714FE1D4CE1214902204600F0E6F81D
:1011E0001421204600F054F9A068F0218843103003
:1011F000A060606811210843606001201449000369
:101200000860FFF757F8014612A000F0A9F9FFF7B0
:1012100061F8014616A000F0A3F9FFF765F8014652
:1012200019A000F09DF9FFF76BF801461CA000F033
:1012300097F9FFF775F8014620A000F091F9A06931
:10124000C000FCD510BD00001000000400000740E5
:1012500000E100E00D0A434C4B5F47657443505575
:1012600046726571203A202538640D0A000000009E
:10127000434C4B5F47657448585446726571203A39
:10128000202538640D0A0000434C4B5F4765744CC1
:10129000585446726571203A202538640D0A0000C2
:1012A000434C4B5F47657450434C4B3046726571FD
:1012B000203A202538640D0A00000000434C4B5FA3
:1012C00047657450434C4B3146726571203A202576
:1012D00038640D0A0000000042680A43426070470B
:1012E00010B5032000F09CFB002817D0002103203C
:1012F00000F068FC0A490BA000F032F9114C61784B
:1013000011A000F02DF9A1781BA000F029F91121FE
:101310002548FFF7E1FF00206070A07010BD0000BD
:10132000400000200A554152543020527820526526
:101330006365697665642044617461203A20257391
:101340000A0000001000002055415254302052780D
:101350002052444120284669666F66756C6C2920CE
:10136000696E746572727570742074696D6573202E
:101370003A2025640A00000055415254302052782A
:10138000205258544F202854696D656F7574292078
:10139000696E746572727570742074696D657320FE
:1013A0003A2025640A00000000000740F0B587B02D
:1013B0000F46044600252E4618222E496846FEF7A1
:1013C000DBFE2D492D482E4A8C4205D14369006A27
:1013D0005B015D0F000A0FE02A4B9C4206D1436976
:1013E000006A5B005D0F0004060F07E0944205D120
:1013F000C369006B5B015D0F0607360F0020206399
:101400000320E060A068204B1840A060012D02D0AE
:10141000042D04D00DE0FEF793FF019009E08C420B
:1014200001D0944202D1FEF76BFF01E0FEF778FF96
:101430000490002F1BD0A90068464058711CFEF78D
:1014400085FE0546790840183946FEF77FFE0F49AC
:10145000801E884207D9F90068183946FEF776FEE3
:101460000009801E02E0032109070843606207B0FB
:10147000F0BD0000A81C0000000007400002004072
:1014800000200740001007400FFFF0FFFFFF0000A3
:10149000026A120A12020A43026241680122D2025F
:1014A000114341607047F0B50027054601263846D4
:1014B000B6070CE0002302E05B1CB34209D2AC6922
:1014C0002402F9D4002F04D10B5C2B60401C904205
:1014D000F0D1F0BDF8B5204E0446B0680D46844208
:1014E00001D90320F8BD3069005DA84224D0FFF780
:1014F00099F8F068194F810723D079693268801E06
:10150000520289180818FFF7EDF821042A0680B264
:10151000114301437869326852028218F068801ED4
:101520001018FFF70BF930690555F068C11FFF3936
:10153000F83903D0801CF0600020F8BDFFF780F977
:10154000FAE7012229021204A21A11437A693368C8
:101550005B021818E4E700002400002000C00040EF
:101560000FB410B503A9044B044A029800F018F810
:1015700010BC08BC04B01847151A00000C0000206D
:1015800002E008C8121F08C1002AFAD1704770474C
:10159000002001E001C1121F002AFBD170470000AA
:1015A000FFB591B00F460546002606E025280AD073
:1015B000149A139990476D1C761C28780028F5D151
:1015C000304615B0F0BD002400940121F34A029486
:1015D00000E004436D1C2B780846203B98401042E5
:1015E000F7D128782A280ED0022128780246303AEE
:1015F000092A15D8009A0A235A43303A80180C4316
:101600006D1C0090F1E701CF0090002805DA012061
:1016100040030443009840420090022004436D1CA4
:1016200028782E2815D10420044368786D1C2A28B8
:101630000AD101CF6D1C02900BE002990A2251439E
:10164000303940186D1C029028780146303909293C
:10165000F3D928786C2810D006DC4C281AD06828DA
:101660000ED06A2817D104E0742813D07A2812D13A
:1016700010E00120400504430CE00121090501E0D0
:10168000032109050C436978814203D1012000053B
:1016900024186D1C6D1C287803906E281ED00CDC5D
:1016A000632831D004DC00288AD0582811D1B2E058
:1016B00064287BD069280CD178E073282DD004DC15
:1016C0006F2870D0702804D1A7E075286CD07828D6
:1016D0006BD0149A13999047761C62E06002400F19
:1016E000022807D003280AD0042838680AD00660E8
:1016F0003F1D56E03868F11706604160F8E738682A
:101700000680F5E70670F3E738786946087400202C
:10171000487404A80390012003E038680390002077
:10172000C0433F1D61070FD5002101E00199491C0D
:10173000029A0191914213DA8142F7DB019A0399EF
:10174000895C0029F2D10BE0002101E00199491CDC
:1017500001918142FADB019A0399895C0029F5D154
:1017600001990098139A401A00902146149B00F0AA
:101770003BF901998019461807E00398039900780E
:10178000491C0391149A139990470198401E0190A7
:10179000401CF2D12146149B139A009800F014F9D2
:1017A00086196D1C09E741E033E034E00A2000218E
:1017B000049005916002410F022905D001CFC217A4
:1017C0009446032905D007E0FF1DFF08FF0003CF63
:1017D00006E000B2C2179446042902D140B2C117F4
:1017E0008C4600226146944506DA0A4600214042B2
:1017F00091418C462D2102E0210504D52B216A461A
:101800001176012103E0E10701D02021F7E70191E2
:1018100054E00A200BE0102009E010200490002181
:101820000420044308200591029003E008200021D1
:10183000059104906002410F022905D001CF0022DA
:101840009446032906D006E0FF1DFF08FF0003CFE2
:101850008C4603E080B2042900D1C0B2002101917E
:1018600021072BD50399702906D0049A1021059BD6
:101870004A401A4305D00EE040216A461176012104
:1018800008E06146014306D030216A46117603998B
:10189000517602210191049A0821059B4A401A437E
:1018A0000CD16146014301D1610707D530216A4659
:1018B0001176012101910299491E0291039958293B
:1018C00004D037A103910FA90F910DE039A1F9E7D9
:1018D0006146059B049AFEF768FC039B8C469B5C63
:1018E0000F9A521E0F92137061460143F0D10F9868
:1018F00007A9081A20300390600704D501200004CE
:101900008443029801E0012002900399884201DD9E
:10191000401A00E000204118029001980918009830
:10192000401A0090E00306D42146149B139A0098B5
:1019300000F05AF886190020049008E006A9085C17
:10194000149A139990470498401C761C04900199AE
:101950008842F3DBE0030CD52146149B139A0098D0
:1019600000F042F8861904E0149A30201399904749
:10197000761C0299481E02900029F5DC08E00F98B9
:101980000F990078491C0F91149A13999047761C6F
:101990000399481E03900029F1DCFBE609280100A9
:1019A00030313233343536373839616263646566D5
:1019B0000000000030313233343536373839414297
:1019C0004344454600000000F8B5044600251E4685
:1019D0001746880404D405E039462020B0476D1C22
:1019E000641EF9D52846F8BDFFB50446002581B030
:1019F0001E46C80301D5302700E02027880404D5FF
:101A000005E038460399B0476D1C641EF9D5284699
:101A100005B0F0BD10B50446FFF76CFA204610BDC6
:101A2000012181400348C078014201D00120704764
:101A30000020704710000020FFF7BAF9FFF7C6FB3F
:101A4000FFF7A4F8FFF7DCF8FEF748FDFEF7A2FE6B
:101A5000FFF7C6FAFFF744FCFFF7ACF8FEF76AFDA4
:101A6000F8E70000F0B50B30C108C900144F00269C
:101A7000144A0FE003688B420BD38B4205D95C1AE2
:101A80004318456830C3083B00E04368136002C058
:101A900004E0021D10680028ECD13046002803D174
:101AA0003868002801D00020F0BD064A06481060C2
:101AB000064A121AD208D20044C001203860D7E783
:101AC0003C00002038000020E4000020E00000205E
:101AD0007CB5044602216846FEF712FE0025ED4360
:101AE000002803DA1EA0FFF73BFD17E00098C007AF
:101AF00004D10198A04201D100207CBD1F4801689B
:101B0000102211430160009802214008400000901B
:101B100001946846FEF720FE002801DA28467CBDC5
:101B200002216846FEF7ECFD0098C00702D101983B
:101B3000A04208D012A0FFF713FDFEF76BFD184975
:101B400000200860EAE7214616A0FFF709FDFEF72E
:101B50006FFE0028FBD0012081078860CCE70000E1
:101B60000A52656164205573657220436F6E666921
:101B700067206661696C6564210A000000C000404E
:101B80004572726F723A2050726F6772616D2043B6
:101B90006F6E666967204661696C6564210A0000A2
:101BA000000100400A536574204461746120466C52
:101BB00061736820626173652061732030782578D5
:101BC0002E0A00000122054B8240D878002902D05D
:101BD0000243DA7070479043D870704710000020BD
:101BE00010B50446016810A0FFF7BAFC11A06168A7
:101BF000FFF7B6FC12A0A168FFF7B2FC13A0E168E2
:101C0000FFF7AEFC14A02169FFF7AAFC15A06169DB
:101C1000FFF7A6FC16A0A169FFF7A2FC17A0E169D7
:101C2000FFF79EFC10BD0000723020203D20307870
:101C300025780A00723120203D20307825780A006E
:101C4000723220203D20307825780A00723320201F
:101C50003D20307825780A00723132203D203078DE
:101C600025780A006C7220203D20307825780A0003
:101C7000706320203D20307825780A007073722030
:101C80003D20307825780A000048E80100800000F7
:101C900000D8B80500960000006CDC0200000000CF
:101CA00000000000006CDC020048E80100000000B9
:101CB00000800000006CDC020000000000960000C4
:101CC0000048E8010000000000800000006CDC0219
:101CD00000000000009600000048E801000000003D
:101CE00000800000006CDC02000000000096000094
:101CF0000000000004000000080000000C000000CC
:101D000000000000000000000000000010000000C3
:101D100000000000040000000800000000000000B7
:101D200004000000080000000048E80100800000F6
:101D3000000000000000000000000000009600000D
:101D400000000000006CDC02544D52315F495251DA
:101D500048616E646C657200781D00000000002010
:101D60004000000080150000B81D00004000002069
:101D7000A00200009015000000D8B8056000000027
:101D800000D8B805000000000100000000000000BD
:101D90000000000000000000000000000000000043
:101DA0000000000000000000000000000000000033
:081DB00000000000000000002B
:04000005000000F106
:00000001FF
